:020000020000FC
:1000000023C1F2E5E0E0D0E0DA95F1F7EA95E1F717
:10001000FA95D1F79A95A9F70895E6E1D0E0DA9537
:10002000F1F7EA95E1F79A95C1F70895000000000D
:1000300000000000000000000000000000000000C0
:1000400000000000000000000000000008950FEF15
:100050000AB9E0E0F0E0F82F8A3028F0FA40E395A2
:10006000FA3008F0FBCFD0E0DE2FD295DF2BDBB9E2
:1000700008950FEF0AB9EFEFEBB90895F999FECFA4
:1000800071BD60BDFA9AF99A0895F999FECF71BDD4
:10009000F89A60B50895E0E0E093C500E7E6E093E4
:1000A000C400E8E1E093C1000895E091C000E5FFDD
:1000B000FCCF5093C6000895E091C000E7FFFCCF4D
:1000C000F090C6000895E0E2E0937C00E7ECE09356
:1000D0007A00E0917A00E6FDFCCFE0907900089587
:1000E000229AE1EAE0938000E0E0E0938B00E42FC5
:1000F000E0938A00E3E0E09381000895E3E0E09379
:100100008100E1E0E0936F0078940895E0E0E093EF
:100110008100E0E0E0936F00E0E0E0938500E09391
:100120008400E0E0DE2E08955C985D985B985A9814
:10013000599858985D9A9FE070DF5B985A98599A41
:10014000589A4DD095E069DF5B985A98599A589A19
:1001500046D095E062DF5B985A98599A589A3FD0FA
:1001600095E05BDF5B985A98599A589838D091E09F
:1001700054DF38E211D03CE00FD031E00DD092E0F6
:100180004CDF36E009D05C9A08955C9831E004D0E9
:1001900092E043DF5C9A089537FD5B9A37FF5B98E6
:1001A00036FD5A9A36FF5A9835FD599A35FF5998B7
:1001B00034FD589A34FF589812D033FD5B9A33FFC0
:1001C0005B9832FD5A9A32FF5A9831FD599A31FFA5
:1001D000599830FD589A30FF589801D008955D988D
:1001E00025DF5D9A23DF5D98E2E320DFEA95E030CA
:1001F000E1F708955C98E0E81E0F312FCDDF5C9A9F
:1002000008955C98E0EC1E0F312FC6DF5C9A0895CC
:10021000E0E32E0F322FC0DF0895F0E0C0E0C22FE0
:100220002A3028F0CA50F395CA3030F0FBCFD0E323
:10023000CD0F3C2FB1DF0895D0E3CD0FFD0F3F2F41
:10024000ABDF3C2FA9DF08950FE004B900EF07B939
:100250000FEF08B90AB968DF98DF58D064D0309939
:10026000FECF00C00E943D010E9442012A980E94D8
:100270004501299A0E944901F2CF07E005B90E9481
:10028000570108953199FECF08953299FECF11D0CC
:1002900008953399FECF00D0D394BD2D08D0B3304C
:1002A00009F700C029982898DD2401D0D8CF4ED076
:1002B000089529982B9A92E0A4DE2B98089512E0D5
:1002C00099DF30E569DF32E567DF3FE465DF37E47A
:1002D00063DF32E561DF31E45FDF3DE45DDF31E4C0
:1002E0005BDF12E08EDF33E457DF3FE455DF3DE4B0
:1002F00053DF35E451DF33E44FDF31E44DDF3EE4DB
:100300004BDF34E449DF3FE447DF0895D8DF91E075
:1003100078DE3BDF91E075DED2DF91E072DE35DF23
:1003200091E06FDE089510E06CDF33E435DF31E4F7
:1003300033DF39E431DF38E52FDF31E42DDF33E51A
:100340002BDF3AE329DF30E227DF089519E059DF98
:060350002D2D63DF08956E
:00000001FF
